:100000000C942A000C9447000C9447000C94470071
:100010000C9447000C9447000C9447000C94470044
:100020000C9447000C9447000C9447000C94470034
:100030000C9447000C9447000C9447000C94470024
:100040000C9447000C9447000C9447000C94470014
:100050000C94470011241FBECFE5D8E0DEBFCDBF12
:1000600010E0A0E6B0E0EAEBFAE002C005900D92E5
:10007000AC38B107D9F720E0ACE8B0E001C01D9280
:10008000A13CB207E1F70E9449000C945B050C9477
:1000900000000E946C040E944E00FDCF0E9474027A
:1000A0000E94BA0160E080E00E945E030E94CB01E2
:1000B0008093C00090ED980F9A3090F5E091B400D5
:1000C000F0E0EE0FFF1FEE0FFF1FE457FF4F008120
:1000D000118122813381000F111F221F331FB901AB
:1000E000A801440F551F661F771F440F551F661F39
:1000F000771F040F151F261F371F682F70E06053EE
:100100007109072E000C880B990B060F171F281F6B
:10011000391F00831183228333830E94E502C6CFF7
:100120008D3319F0833409F014C18D3309F0EBC01D
:1001300060E081E00E945E038DE30E948A021092DB
:10014000B50084C0C12FD0E0FE01EA54FF4F80818A
:100150008A3219F08F32C9F176C0FE01EE0FFF1F0F
:10016000EE0FFF1FE457FF4F608171818281938101
:10017000FE013196EE0FFF1FEE0FFF1FE457FF4FFA
:1001800020813181428153810E94F0046083718318
:1001900082839383FE01EB54FF4F80818D3229F4DB
:1001A000FE01EA54FF4F808305C08BE2FE01EA5452
:1001B000FF4F8083CC0FDD1FCC0FDD1FC457DF4FF7
:1001C000188219821A821B823EC0FE01EE0FFF1FA9
:1001D000EE0FFF1FE457FF4F608171818281938191
:1001E0007E012FEFE21AF20A9701220F331F220F2E
:1001F000331FA90144575F4F7A01FA0120813181F1
:10020000428153810E942205F7012083318342837A
:100210005383FE01EB54FF4F80818D3229F4FE01A0
:10022000EA54FF4F808305C08BE2FE01EA54FF4F82
:100230008083CC0FDD1FCC0FDD1FC457DF4F18822A
:1002400019821A821B821F5F1093B5001091B500AE
:100250004091B400411708F075CF1092B50043C02B
:10026000822F90E0FC01EA54FF4F30813B3219F0BD
:100270003D32E1F035C0FC013196CCE8D0E0EE0F24
:10028000FF1FEE0FFF1FE457FF4F80819181A28176
:10029000B381C880D980EA80FB808C0D9D1DAE1D86
:1002A000BF1D88839983AA83BB831AC0FC01319642
:1002B000CCE8D0E0EE0FFF1FEE0FFF1FE457FF4F1B
:1002C000C080D180E280F38088819981AA81BB813E
:1002D0008C199D09AE09BF0988839983AA83BB83C2
:1002E0002F5F2093B5002091B500421708F0B8CFDA
:1002F00060918C0070918D0080918E0090918F00A4
:100300000E94E502D3CE1092B50014C0282F30E031
:10031000F901EE0FFF1FEE0FFF1FE457FF4F108292
:10032000118212821382F901EA54FF4F10828F5F0B
:100330008093B5008091B5009091B400981730F784
:100340000E94540360E080E00E945E031092B400BB
:10035000ADCE882309F4AACEE091B400F0E0EA54CF
:10036000FF4F80830E948A028091B4008F5F809348
:10037000B4009CCE61E08CE00E94760361E08DE0E9
:100380000E94760361E08EE00E94760361E08FE0D8
:100390000E9476030895FF920F931F93CF93DF93EC
:1003A0001F92CDB7DEB71982F12C0CE038C060E0A7
:1003B000802F0E9476031AE12BC0BE016F5F7F4F32
:1003C000812F0E94FD038981811121C0802F90E03F
:1003D0000C97212F30E02A513109880F991F880F7F
:1003E000991F805A9F4FFC01E20FF31FF08006C057
:1003F000BE016F5F7F4F812F0E94FD03898188239B
:10040000B9F38FE39CE90197F1F700C000001F5F8B
:100410001E3198F261E0802F0E9476030F5F003159
:1004200030F28F2D0F90DF91CF911F910F91FF90A0
:1004300008951F93CF93DF931F92CDB7DEB7182F88
:10044000198260E081E00E94760360E082E00E9411
:100450007603BE016F5F7F4F83E00E945104612FDE
:100460006695687789818778682B83E00E943E04CF
:1004700061E082E00E9476038FE99FE00197F1F747
:1004800000C0000060E082E00E947603BE016F5F62
:100490007F4F83E00E945104812F90E0880F991FC5
:1004A000880F991F880F991F698167788877682B53
:1004B00083E00E943E0461E082E00E9476038FE9BF
:1004C0009FE00197F1F700C0000060E082E00E9429
:1004D00076038FE19EE40197F1F700C000000F90D2
:1004E000DF91CF911F91089583E30E94190282E367
:1004F0000E94190288E20E9419028CE00E941902EF
:1005000081E00E94190286E00E94190282E00E94A6
:10051000190208951F93CF93DF931F92CDB7DEB7D3
:10052000182F198261E081E00E94760360E082E08A
:100530000E947603BE016F5F7F4F83E00E945104EB
:10054000612F6695687789818778682B83E00E94A0
:100550003E0461E082E00E9476038FE99FE001970C
:10056000F1F700C0000060E082E00E947603BE0167
:100570006F5F7F4F83E00E945104812F90E0880FCE
:10058000991F880F991F880F991F6981677888774D
:10059000682B83E00E943E0461E082E00E947603C3
:1005A0008FE99FE00197F1F700C0000060E082E072
:1005B0000E9476038FE19EE40197F1F700C00000EE
:1005C0000F90DF91CF911F9108958F929F92AF92DC
:1005D000BF92CF92DF92EF92FF926B017C01611587
:1005E00071058105910521F480E30E948A020DC006
:1005F00099235CF48DE20E948A02F094E094D094F6
:10060000C094C11CD11CE11CF11C61E070E080E0D1
:1006100090E024C0DC01CB01880F991FAA1FBB1FEB
:100620004C015D01880C991CAA1CBB1C880C991CF0
:10063000AA1CBB1C880E991EAA1EBB1EC701B601B0
:100640002AE030E040E050E00E942205680D791D6C
:100650008A1D9B1DC22ED32EE42EF52EC114D1046B
:10066000E104F104B9F612C02AE030E040E050E0C5
:100670000E940005C22ED32EE42EF52E80E3860FB5
:100680000E948A026C2D7D2D8E2D9F2D613071056B
:100690008105910549F7FF90EF90DF90CF90BF90D3
:1006A000AF909F908F90089581E00E94190286E09C
:1006B0000E94190282E00E9419020895CF93DF93ED
:1006C00000D0CDB7DEB790E8998390EC9A83E1E053
:1006D000F0E0EC0FFD1FE80FF11D8081860F0E94F6
:1006E00019020F900F90DF91CF910895982F969552
:1006F000969596958770662309F43FC0613009F09E
:100700007BC0913099F028F09230E9F0933041F1BC
:1007100008954BB321E030E0B90102C0660F771FA6
:100720008A95E2F7CB01842B8BBB089548B321E077
:1007300030E0B90102C0660F771F8A95E2F7CB015E
:10074000842B88BB089545B321E030E0B90102C095
:10075000660F771F8A95E2F7CB01842B85BB08953E
:1007600042B321E030E0B90102C0660F771F8A95DD
:10077000E2F7CB01842B82BB08959130A1F028F0E1
:100780009230F9F0933059F108954BB321E030E005
:10079000B90102C0660F771F8A95E2F7CB018095F9
:1007A00084238BBB089548B321E030E0B90102C037
:1007B000660F771F8A95E2F7CB018095842388BB6B
:1007C000089545B321E030E0B90102C0660F771FFC
:1007D0008A95E2F7CB018095842385BB089542B3C7
:1007E00021E030E0B90102C0660F771F8A95E2F779
:1007F000CB018095842382BB0895982F969596957A
:1008000096958770913099F028F09230E9F0933006
:1008100041F1089529B330E0A90102C055954795EB
:100820008A95E2F7CA018170FB018083089526B39F
:1008300030E0A90102C0559547958A95E2F7CA01B3
:100840008170FB018083089523B330E0A90102C0C9
:10085000559547958A95E2F7CA018170FB0180831F
:10086000089520B330E0A90102C0559547958A95B7
:10087000E2F7CA018170FB01808308958695869511
:100880008695813041F028F0823039F0833039F09C
:1008900008956BBB089568BB089565BB089562BB5E
:1008A0000895869586958695813051F028F082309E
:1008B00059F0833069F008958BB3FB01808308956C
:1008C00088B3FB018083089585B3FB01808308957D
:1008D00082B3FB018083089590E07EC0E92FF0E0B1
:1008E000EE0FFF1FE059FF4F8081282F2695269598
:1008F0002695877031813323B9F1313009F06BC00F
:10090000213089F028F02230C9F0233011F163C082
:100910004AB321E030E002C0220F331F8A95E2F78C
:10092000242B2ABB58C047B321E030E002C0220F7D
:10093000331F8A95E2F7242B27BB4DC044B321E037
:1009400030E002C0220F331F8A95E2F7242B24BB2C
:1009500042C041B321E030E002C0220F331F8A952C
:10096000E2F7242B21BB37C0213091F028F0223050
:10097000D9F0233029F12FC04AB321E030E002C082
:10098000220F331F8A95E2F7209524232ABB23C028
:1009900047B321E030E002C0220F331F8A95E2F70F
:1009A0002095242327BB17C044B321E030E002C0C8
:1009B000220F331F8A95E2F72095242324BB0BC016
:1009C00041B321E030E002C0220F331F8A95E2F7E5
:1009D0002095242321BB9F5F9E3008F47FCF08958C
:1009E000DB018F939F930E944105BF91AF91A29F1E
:1009F000800D911DA39F900DB29F900D112408951D
:100A0000A1E21A2EAA1BBB1BFD010DC0AA1FBB1F12
:100A1000EE1FFF1FA217B307E407F50720F0A21B84
:100A2000B30BE40BF50B661F771F881F991F1A94F1
:100A300069F760957095809590959B01AC01BD011B
:100A4000CF010895052E97FB1EF400940E943905EE
:100A500057FD07D00E94000507FC03D04EF40C940C
:100A6000390550954095309521953F4F4F4F5F4F39
:100A7000089590958095709561957F4F8F4F9F4F0A
:100A800008950E944C05A59F900DB49F900DA49FC2
:100A9000800D911D11240895A29FB001B39FC00144
:100AA000A39F700D811D1124911DB29F700D811D9A
:0A0AB0001124911D0895F894FFCF62
:100ABA003132332B3435362D3738392A43303D2FEE
:100ACA000101020103010401050106010C010D01E6
:0C0ADA000E010F011A001B001C001D0083
:00000001FF
